S00F00004C6573736F6E312E7372656370
S11300000C9434000C943E000C943E000C943E007E
S11300100C943E000C943E000C943E000C943E0064
S11300200C943E000C943E000C943E000C943E0054
S11300300C943E000C943E000C943E000C943E0044
S11300400C943E000C943E000C943E000C943E0034
S11300500C943E000C943E000C943E000C943E0024
S11300600C943E000C943E0011241FBECFEFD8E048
S1130070DEBFCDBF0E9440000C94E4040C94000049
S11300800F931F93CF93DF93CDB7DEB7C655D10936
S11300900FB6F894DEBF0FBECDBF8AE290E02FEF1B
S11300A0FC0120831A8219828BE290E024E0FC0197
S11300B0208380E090E8ABE3B5E48F839887A98739
S11300C0BA8720E030E04AE755E46F817885898576
S11300D09A850E944F04DC01CB018FA798ABA9AB92
S11300E0BAAB20E030E040E85FE36FA578A989A9C6
S11300F09AA90E94C90388232CF481E090E09CAB68
S11301008BAB3EC020E03FEF4FE757E46FA578A9E3
S113011089A99AA90E944A04181644F520E030E0FF
S113012040E251E46F81788589859A850E944F0465
S1130130DC01CB01BC01CD010E94CE03DC01CB016B
S11301409CAB8BAB8BA99CA9892B21F180E991E015
S11301509EAB8DAB8DA99EA90197F1F79EAB8DAB9C
S11301608BA99CA901979CAB8BABECCF6FA578A90D
S113017089A99AA90E94CE03DC01CB019CAB8BAB6D
S11301808BA99CA998AF8FAB8FA998AD0197F1F774
S113019098AF8FAB8BE290E020E1FC01208380E0FC
S11301A090E0AAEFB3E48B879C87AD87BE8720E0FD
S11301B030E04AE755E46B857C858D859E850E94F9
S11301C04F04DC01CB018DA39EA3AFA3B8A720E00D
S11301D030E040E85FE36DA17EA18FA198A50E9465
S11301E0C90388232CF481E090E09AA789A73EC034
S11301F020E03FEF4FE757E46DA17EA18FA198A5C2
S11302000E944A04181644F520E030E040E251E42C
S11302106B857C858D859E850E944F04DC01CB0116
S1130220BC01CD010E94CE03DC01CB019AA789A7B2
S113023089A59AA5892B21F180E991E09CA78BA738
S11302408BA59CA50197F1F79CA78BA789A59AA5D7
S113025001979AA789A7ECCF6DA17EA18FA198A53C
S11302600E94CE03DC01CB019AA789A789A59AA590
S11302709EA78DA78DA59EA50197F1F79EA78DA793
S11302808BE290E020E4FC01208380E090E8ABE383
S1130290B5E48F8B988FA98FBA8F20E030E04AE7BE
S11302A055E46F89788D898D9A8D0E944F04DC0105
S11302B0CB018B8F9C8FAD8FBE8F20E030E040E868
S11302C05FE36B8D7C8D8D8D9E8D0E94C903882389
S11302D02CF481E090E098A38F8F3EC020E03FEFA4
S11302E04FE757E46B8D7C8D8D8D9E8D0E944A0463
S11302F0181644F520E030E040E251E46F89788D2F
S1130300898D9A8D0E944F04DC01CB01BC01CD0183
S11303100E94CE03DC01CB0198A38F8F8F8D98A10F
S1130320892B21F180E991E09AA389A389A19AA15B
S11303300197F1F79AA389A38F8D98A1019798A3A8
S11303408F8FECCF6B8D7C8D8D8D9E8D0E94CE0317
S1130350DC01CB0198A38F8F8F8D98A19CA38BA3D5
S11303608BA19CA10197F1F79CA38BA389819A810E
S113037004970CF04EC18BE290E0FC01108280E007
S113038090E0A6E9B3E48B8B9C8BAD8BBE8B8E0186
S11303900D5B1F4F20E030E04AE755E46B897C8910
S11303A08D899E890E944F04DC01CB01F801808372
S11303B09183A283B383CE018D5B9F4F20E030E015
S11303C040E85FE3FC0160817181828193810E9436
S11303D0C90388234CF4CE01895B9F4F21E030E0B0
S11303E0FC013183208369C0CE018D5B9F4F20E0E7
S11303F03FEF4FE757E4FC01608171818281938173
S11304000E944A0418160CF046C020E030E040E296
S113041051E46B897C898D899E890E944F04DC019B
S1130420CB018E01095B1F4FBC01CD010E94CE039D
S1130430DC01CB01F80191838083CE01895B9F4F5E
S1130440FC0180819181892B09F451C0CE01875B25
S11304509F4F20E931E0FC0131832083CE01875B8B
S11304609F4FFC01808191810197F1F79E01275BE9
S11304703F4FF90191838083CE01895B9F4F9E0199
S1130480295B3F4FF9012081318121503109FC0161
S113049031832083D2CF8E01095B1F4FCE018D5B48
S11304A09F4FFC0160817181828193810E94CE0300
S11304B0DC01CB01F80191838083CE01855B9F4FE2
S11304C09E01295B3F4FF90120813181FC01318379
S11304D02083CE01855B9F4FFC0180819181019730
S11304E0F1F79E01255B3F4FF901918380838BE2F5
S11304F090E020E4FC01208380E090E0A6E9B3E4EE
S11305008B839C83AD83BE8320E030E04AE755E4CF
S11305106B817C818D819E810E944F04DC01CB0123
S113052089AF9AAFABAFBCAF20E030E040E85FE307
S113053069AD7AAD8BAD9CAD0E94C90388232CF4C0
S113054081E090E09EAF8DAF48C020E03FEF4FE7E1
S113055057E469AD7AAD8BAD9CAD0E944A04181680
S113056094F520E030E040E251E46B817C818D81A0
S11305709E810E944F04DC01CB01BC01CD010E948D
S1130580CE03DC01CB019EAF8DAF8DAD9EAD892B2B
S1130590D1F120E931E0CE01CF96FC0131832083F3
S11305A0CE01CF96FC01808191810197F1F79E01E4
S11305B0215C3F4FF901918380838DAD9EAD0197FE
S11305C09EAF8DAFE2CF69AD7AAD8BAD9CAD0E948D
S11305D0CE03DC01CB019EAF8DAFCE018F5B9F4F6D
S11305E02DAD3EADFC0131832083CE018F5B9F4F47
S11305F0FC01808191810197F1F79E012F5B3F4FB0
S1130600F9019183808389819A8101969A838983F0
S1130610ADCE1A8219828BE290E020E1FC012083A6
S113062080E090E0AAEFB3E48F87988BA98BBA8B14
S11306308E01035B1F4F20E030E04AE755E46F85ED
S1130640788989899A890E944F04DC01CB01F801D9
S113065080839183A283B383CE01835B9F4F20E089
S113066030E040E85FE3FC01608171818281938125
S11306700E94C90388234CF4CE018F5A9F4F21E076
S113068030E0FC013183208369C0CE01835B9F4F3E
S113069020E03FEF4FE757E4FC01608171818281E4
S11306A093810E944A0418160CF046C020E030E002
S11306B040E251E46F85788989899A890E944F04C0
S11306C0DC01CB018E010F5A1F4FBC01CD010E94EA
S11306D0CE03DC01CB01F80191838083CE018F5AD4
S11306E09F4FFC0180819181892B09F4DDCCCE01DF
S11306F08D5A9F4F20E931E0FC0131832083CE01E4
S11307008D5A9F4FFC01808191810197F1F79E01E1
S11307102D5A3F4FF90191838083CE018F5A9F4F09
S11307209E012F5A3F4FF901208131812150310917
S1130730FC0131832083D2CF8E010F5A1F4FCE018B
S1130740835B9F4FFC0160817181828193810E9450
S1130750CE03DC01CB01F80191838083CE018B5A57
S11307609F4F9E012F5A3F4FF90120813181FC0197
S113077031832083CE018B5A9F4FFC01808191816C
S11307800197F1F79E012B5A3F4FF9019183808322
S11307908BCC0E94FD0308F481E008950E94290493
S11307A088F09F5798F0B92F9927B751B0F0E1F02E
S11307B0660F771F881F991F1AF0BA95C9F714C0DE
S11307C0B13091F00E944304B1E008950C944304C5
S11307D0672F782F8827B85F39F0B93FCCF3869517
S11307E077956795B395D9F73EF490958095709574
S11307F061957F4F8F4F9F4F0895990F0008550FB4
S1130800AA0BE0E8FEEF16161706E807F907C0F092
S113081012161306E407F50798F0621B730B840B9A
S1130820950B39F40A2661F0232B242B252B21F474
S113083008950A2609F4A140A6958FEF811D811D14
S1130840089557FD9058440F551F59F05F3F71F0BC
S11308504795880F97FB991F61F09F3F79F0879523
S11308600895121613061406551FF2CF4695F1DFAC
S113087008C0161617061806991FF1CF869571053C
S1130880610508940895E894BB2766277727CB0170
S113089097F908950E94FD0308F48FEF08950E94CC
S11308A062040C94D3040E94C50438F00E94CC0462
S11308B020F0952311F00C94BC040C94C204112470
S11308C00C9444040E94210470F3959FC1F3950F86
S11308D050E0551F629FF001729FBB27F00DB11DC0
S11308E0639FAA27F00DB11DAA1F649F6627B00D50
S11308F0A11D661F829F2227B00DA11D621F739F39
S1130900B00DA11D621F839FA00D611D221F749F46
S11309103327A00D611D231F849F600D211D822F8D
S1130920762F6A2F11249F5750409AF0F1F08823B4
S11309304AF0EE0FFF1FBB1F661F771F881F9150E1
S11309405040A9F79E3F510580F00C94BC040C94D0
S113095044045F3FE4F3983ED4F386957795679516
S1130960B795F795E7959F5FC1F7FE2B880F911D0B
S11309709695879597F9089597F99F6780E870E0B1
S113098060E008959FEF80EC089500240A94161601
S1130990170618060906089500240A941216130669
S11309A0140605060895092E0394000C11F48823F7
S11309B052F0BB0F40F4BF2B11F460FF04C06F5F13
S10F09C07F4F8F4F9F4F0895F894FFCF96
S9030000FC
