S00C000050726F672E7372656380
S11300000C942A000C9434000C9434000C943400A6
S11300100C9434000C9434000C9434000C9434008C
S11300200C9434000C9434000C9434000C9434007C
S11300300C9434000C9434000C9434000C9434006C
S11300400C9434000C9434000C9434000C9434005C
S11300500C94340011241FBECFE5D8E0DEBFCDBF21
S11300600E9436000C945E000C94000012BC89E6D9
S113007083BF12BE1CBE19BE8FEF87BB18BA1CBE4D
S11300808CB78F3F21F48CB781110BC0F9CF8CB79B
S11300908F5F8CBF8FE39FE10197F1F700C00000F1
S11300A0EFCF8CB781508CBF8FE39FE10197F1F7BD
S11300B000C000008CB78111F4CFE2CFF894FFCFD9
S9030000FC
