S00F000054656D704144432E73726563B7
S11300000C942A000C9434000C9434000C943400A6
S11300100C9434000C9434000C9434000C9434008C
S11300200C9434000C9434000C9434000C9434007C
S11300300C9434000C9434000C9434000C9434006C
S11300400C9434000C9434000C9434000C9434005C
S11300500C94340011241FBECFE5D8E0DEBFCDBF21
S11300600E9436000C9498000C940000CF93DF9308
S113007000D01F92CDB7DEB71A82198281E390E0D7
S11300802FEFFC0120838AE390E02AE330E0F901BA
S113009020812E7FFC01208387E290E020ECFC018C
S11300A0208386E290E027E8FC01208386E290E04A
S11300B026E230E0F90120812064FC01208386E2FD
S11300C090E0FC018081882F90E080749927082EAD
S11300D0892F000C881F990B000C881F991F21E0A1
S11300E0019709F020E0222309F0E9CF84E290E0AF
S11300F0FC018081282F30E085E290E0FC018081C2
S1130100882F90E0982F8827822B932B9A838983BA
S113011089819A8199230CF40396959587959595F1
S113012087958B8382E390E02B81FC012083BECFF3
S1070130F894FFCF6D
S9030000FC
