S0200000387365676D656E74494E445F666F725F41544D45474133322E73726563E5
S11300000C942A000C943F000C943F000C943F0085
S11300100C943F000C943F000C943F000C943F0060
S11300200C943F000C943F000C943F000C943F0050
S11300300C943F000C943F000C943F000C943F0040
S11300400C943F000C943F000C943F000C943F0030
S11300500C943F0011241FBECFE5D8E0DEBFCDBF16
S113006010E0A0E6B0E0EEE2F4E002C005900D92EC
S1130070A437B107D9F70E9441000C9415020C94DF
S11300800000CF93DF93CDB7DEB760970FB6F89437
S1130090DEBF0FBECDBF87E390E02FEFFC012083CE
S11300A081E390E02FEFFC01208388E390E021E0DE
S11300B0FC0120831A82198289819A810997D4F7D5
S11300C088E390E020E8FC01208381E0882329F084
S11300D088E390E021E0FC01208382E390E0298121
S11300E03A81220F331F205A3F4FF9012081318179
S11300F0FC01208388E390E028E330E0F9012081CB
S1130100220FFC01208380E090E0AAE7B4E48B8313
S11301109C83AD83BE8320E030E04AE755E46B81E5
S11301207C818D819E810E948001DC01CB018F83C3
S11301309887A987BA8720E030E040E85FE36F81C1
S1130140788589859A850E94FA0088232CF481E0B9
S113015090E09C878B873EC020E03FEF4FE757E459
S11301606F81788589859A850E947B01181644F5EC
S113017020E030E040E251E46B817C818D819E81FE
S11301800E948001DC01CB01BC01CD010E94FF0073
S1130190DC01CB019C878B878B859C85892B21F186
S11301A080E991E09E878D878D859E850197F1F783
S11301B09E878D878B859C8501979C878B87ECCF49
S11301C06F81788589859A850E94FF00DC01CB01C7
S11301D09C878B878B859C85988B8F878F85988947
S11301E00197F1F7988B8F8789819A8101969A8379
S11301F0898362CF0E942E0108F481E008950E9451
S11302005A0188F09F5798F0B92F9927B751B0F049
S1130210E1F0660F771F881F991F1AF0BA95C9F786
S113022014C0B13091F00E947401B1E008950C94AF
S11302307401672F782F8827B85F39F0B93FCCF362
S1130240869577956795B395D9F73EF49095809503
S1130250709561957F4F8F4F9F4F0895990F0008B8
S1130260550FAA0BE0E8FEEF16161706E807F90784
S1130270C0F012161306E407F50798F0621B730B1F
S1130280840B950B39F40A2661F0232B242B252BA0
S113029021F408950A2609F4A140A6958FEF811D43
S11302A0811D089557FD9058440F551F59F05F3F25
S11302B071F04795880F97FB991F61F09F3F79F084
S11302C087950895121613061406551FF2CF469506
S11302D0F1DF08C0161617061806991FF1CF869588
S11302E07105610508940895E894BB27662777276C
S11302F0CB0197F908950E942E0108F48FEF089519
S11303000E9493010C9404020E94F60138F00E94AA
S1130310FD0120F0952311F00C94ED010C94F301F0
S113032011240C9475010E94520170F3959FC1F33E
S1130330950F50E0551F629FF001729FBB27F00D8F
S1130340B11D639FAA27F00DB11DAA1F649F6627E4
S1130350B00DA11D661F829F2227B00DA11D621F33
S1130360739FB00DA11D621F839FA00D611D221FED
S1130370749F3327A00D611D231F849F600D211DD1
S1130380822F762F6A2F11249F5750409AF0F1F054
S113039088234AF0EE0FFF1FBB1F661F771F881FBD
S11303A091505040A9F79E3F510580F00C94ED0107
S11303B00C9475015F3FE4F3983ED4F386957795EA
S11303C06795B795F795E7959F5FC1F7FE2B880F63
S11303D0911D9695879597F9089597F99F6780E8F9
S11303E070E060E008959FEF80EC089500240A9483
S11303F01616170618060906089500240A941216FC
S11304001306140605060895092E0394000C11F42E
S1130410882352F0BB0F40F4BF2B11F460FF04C0DB
S11104206F5F7F4F8F4F9F4F0895F894FFCF6B
S113042EA000BB0062002A0039002C002400BA0090
S107043E200028006E
S9030000FC
