:100000000C9434000C9451000C9451000C94510049
:100010000C9451000C9451000C9451000C9451001C
:100020000C9451000C9451000C9451000C9451000C
:100030000C9451000C9451000C9451000C945100FC
:100040000C9451000C9451000C9451000C945100EC
:100050000C9451000C9451000C9451000C945100DC
:100060000C9451000C94510011241FBECFEFD8E026
:10007000DEBFCDBF11E0A0E0B1E0E2E0F6E002C0FB
:1000800005900D92A630B107D9F721E0A6E0B1E0C6
:1000900001C01D92A630B207E1F70E9453000C94F4
:1000A000FF020C940000CF93DF93CDB7DEB7AA9781
:1000B0000FB6F894DEBF0FBECDBF84E290E02FEF05
:1000C000FC0120838AE290E02FEFFC01208385E28F
:1000D00090E024E0FC0120838BE290E020E6FC012C
:1000E000208380E090E0A0E2B1E489839A83AB832F
:1000F000BC8320E030E04AE755E469817A818B8156
:100100009C810E946A02DC01CB0189A39AA3ABA364
:10011000BCA320E030E040E85FE369A17AA18BA1B5
:100120009CA10E94E40188232CF481E090E09EA32E
:100130008DA33EC020E03FEF4FE757E469A17AA1CD
:100140008BA19CA10E946502181644F520E030E0C6
:1001500040E251E469817A818B819C810E946A022C
:10016000DC01CB01BC01CD010E94E901DC01CB0126
:100170009EA38DA38DA19EA1892B21F180E991E001
:1001800098A78FA38FA198A50197F1F798A78FA3A0
:100190008DA19EA101979EA38DA3ECCF69A17AA109
:1001A0008BA19CA10E94E901DC01CB019EA38DA340
:1001B0008DA19EA19AA789A789A59AA50197F1F774
:1001C0009AA789A785E290E020910201309103016E
:1001D0002F5FFC0120838BE290E0209100013091A1
:1001E0000101FC01208380E090E0A0E2B1E48D8376
:1001F0009E83AF83B88720E030E04AE755E46D8105
:100200007E818F8198850E946A02DC01CB018F8BF1
:10021000988FA98FBA8F20E030E040E85FE36F89C4
:10022000788D898D9A8D0E94E40188232CF481E0D9
:1002300090E09C8F8B8F3EC020E03FEF4FE757E46C
:100240006F89788D898D9A8D0E946502181644F504
:1002500020E030E040E251E46D817E818F8198851D
:100260000E946A02DC01CB01BC01CD010E94E901C0
:10027000DC01CB019C8F8B8F8B8D9C8D892B21F189
:1002800080E991E09E8F8D8F8D8D9E8D0197F1F786
:100290009E8F8D8F8B8D9C8D01979C8F8B8FECCF3C
:1002A0006F89788D898D9A8D0E94E901DC01CB01DF
:1002B0009C8F8B8F8B8D9C8D98A38F8F8F8D98A10A
:1002C0000197F1F798A38F8F85E290E022E0FC017F
:1002D00020838BE290E02091040130910501FC0124
:1002E000208380E090E0A0E2B1E489879A87AB8721
:1002F000BC8720E030E04AE755E469857A858B8544
:100300009C850E946A02DC01CB018D879E87AF87A6
:10031000B88B20E030E040E85FE36D857E858F8517
:1003200098890E94E40188232CF481E090E09A8B64
:10033000898B3FC020E03FEF4FE757E46D857E8516
:100340008F8598890E94650218164CF520E030E0F0
:1003500040E251E469857A858B859C850E946A021A
:10036000DC01CB01BC01CD010E94E901DC01CB0124
:100370009A8B898B89899A89892B09F4A8CE80E97F
:1003800091E09C8B8B8B8B899C890197F1F79C8BDF
:100390008B8B89899A8901979A8B898BEBCF6D8595
:1003A0007E858F8598890E94E901DC01CB019A8BBB
:1003B000898B89899A899E8B8D8B8D899E890197DE
:1003C000F1F79E8B8D8B83CE0E94180208F481E09A
:1003D00008950E94440288F09F5798F0B92F9927FA
:1003E000B751B0F0E1F0660F771F881F991F1AF020
:1003F000BA95C9F714C0B13091F00E945E02B1E025
:1004000008950C945E02672F782F8827B85F39F023
:10041000B93FCCF3869577956795B395D9F73EF4B8
:1004200090958095709561957F4F8F4F9F4F089560
:10043000990F0008550FAA0BE0E8FEEF16161706F5
:10044000E807F907C0F012161306E407F50798F05D
:10045000621B730B840B950B39F40A2661F0232B76
:10046000242B252B21F408950A2609F4A140A695F2
:100470008FEF811D811D089557FD9058440F551F22
:1004800059F05F3F71F04795880F97FB991F61F016
:100490009F3F79F087950895121613061406551F8D
:1004A000F2CF4695F1DF08C0161617061806991FF9
:1004B000F1CF86957105610508940895E894BB27EE
:1004C00066277727CB0197F908950E94180208F450
:1004D0008FEF08950E947D020C94EE020E94E002CC
:1004E00038F00E94E70220F0952311F00C94D70217
:1004F0000C94DD0211240C945F020E943C0270F304
:10050000959FC1F3950F50E0551F629FF001729FB8
:10051000BB27F00DB11D639FAA27F00DB11DAA1FC7
:10052000649F6627B00DA11D661F829F2227B00D14
:10053000A11D621F739FB00DA11D621F839FA00D9F
:10054000611D221F749F3327A00D611D231F849FEF
:10055000600D211D822F762F6A2F11249F57504046
:100560009AF0F1F088234AF0EE0FFF1FBB1F661FC1
:10057000771F881F91505040A9F79E3F510580F08A
:100580000C94D7020C945F025F3FE4F3983ED4F3DF
:10059000869577956795B795F795E7959F5FC1F72E
:1005A000FE2B880F911D9695879597F9089597F9D9
:1005B0009F6780E870E060E008959FEF80EC089509
:1005C00000240A9416161706180609060895002432
:1005D0000A9412161306140605060895092E0394AC
:1005E000000C11F4882352F0BB0F40F4BF2B11F420
:1005F00060FF04C06F5F7F4F8F4F9F4F0895F89447
:02060000FFCF2A
:06060200E80020002000CA
:00000001FF
