:100000000C9434000C9449000C9449000C94490061
:100010000C9449000C9449000C9449000C9449003C
:100020000C9449000C9449000C9449000C9449002C
:100030000C9449000C9449000C9449000C9449001C
:100040000C9449000C9449000C9449000C9449000C
:100050000C9449000C9449000C9449000C944900FC
:100060000C9449000C94490011241FBECFEFD8E036
:10007000DEBFCDBF11E0A0E0B1E0E4E2F1E002C0FC
:1000800005900D92A431B107D9F70E944B000C9452
:1000900090000C940000CF93DF9300D0CDB7DEB773
:1000A00084E290E02FEFFC0120838AE290E02FEFC2
:1000B000FC01208385E290E021E0FC0120831A828C
:1000C000198289819A810997D4F785E290E0FC0131
:1000D000908181E0953008F480E0882329F085E262
:1000E00090E021E0FC0120838BE290E029813A81BD
:1000F000220F331F20503F4FF90120813181FC0135
:10010000208385E290E025E230E0F9012081220F92
:10011000FC01208389819A8101969A838983D1CFBA
:04012000F894FFCF81
:10012400A000BB0062002A0039002C002400BA00A1
:04013400200028007F
:00000001FF
