S01A0000387365676D656E7420696E64696361746F722E7372656302
S11300000C9434000C9449000C9449000C9449005D
S11300100C9449000C9449000C9449000C94490038
S11300200C9449000C9449000C9449000C94490028
S11300300C9449000C9449000C9449000C94490018
S11300400C9449000C9449000C9449000C94490008
S11300500C9449000C9449000C9449000C944900F8
S11300600C9449000C94490011241FBECFEFD8E032
S1130070DEBFCDBF11E0A0E0B1E0EEE5FFE002C0DD
S113008005900D92A431B107D9F70E944B000C944E
S1130090AD070C9400000F931F93CF93DF93CDB75C
S11300A0DEB7CE57D1090FB6F894DEBF0FBECDBF71
S11300B084E290E02FEFFC0120838AE290E02FEFAE
S11300C0FC0120838BE290E020910001309101013A
S11300D0FC01208385E290E021E0FC01208380E0A4
S11300E090E0AAE7B4E489839A83AB83BC838E014E
S11300F00B581F4F20E030E04AE755E469817A81CC
S11301008B819C810E941807DC01CB01F80180835C
S11301109183A283B383CE018B589F4F20E030E0BC
S113012040E85FE3FC0160817181828193810E94D8
S1130130920688234CF4CE0187589F4F21E030E08B
S1130140FC013183208369C0CE018B589F4F20E08E
S11301503FEF4FE757E4FC01608171818281938115
S11301600E94130718160CF046C020E030E040E26D
S113017051E469817A818B819C810E941807DC019A
S1130180CB018E0107581F4FBC01CD010E94970679
S1130190DC01CB01F80191838083CE0187589F4F06
S11301A0FC0180819181892B09F451C0CE018558CD
S11301B09F4F20E931E0FC0131832083CE01855833
S11301C09F4FFC01808191810197F1F79E01255891
S11301D03F4FF90191838083CE0187589F4F9E0141
S11301E027583F4FF9012081318121503109FC0109
S11301F031832083D2CF8E0107581F4FCE018B58F5
S11302009F4FFC0160817181828193810E949706D6
S1130210DC01CB01F80191838083CE0183589F4F89
S11302209E0127583F4FF90120813181FC01318320
S11302302083CE0183589F4FFC01808191810197D7
S1130240F1F79E0123583F4FF901918380838BE29C
S113025090E02091020130910301FC01208385E2AA
S113026090E022E0FC01208380E090E0AAE7B4E47F
S11302708D839E83AF83B8878E0105591F4F20E07D
S113028030E04AE755E46D817E818F8198850E9434
S11302901807DC01CB01F80180839183A283B38327
S11302A0CE0185599F4F20E030E040E85FE3FC0138
S11302B060817181828193810E94920688234CF42B
S11302C0CE0181599F4F21E030E0FC01318320832E
S11302D069C0CE0185599F4F20E03FEF4FE757E4B7
S11302E0FC0160817181828193810E941307181639
S11302F00CF046C020E030E040E251E46D817E81A4
S11303008F8198850E941807DC01CB018E01015969
S11303101F4FBC01CD010E949706DC01CB01F801FF
S113032091838083CE0181599F4FFC01808191810B
S1130330892B09F451C0CE018F589F4F20E931E039
S1130340FC0131832083CE018F589F4FFC018081B3
S113035091810197F1F79E012F583F4FF901918345
S11303608083CE0181599F4F9E0121593F4FF9014E
S11303702081318121503109FC0131832083D2CF86
S11303808E0101591F4FCE0185599F4FFC01608199
S11303907181828193810E949706DC01CB01F8016F
S11303A091838083CE018D589F4F9E0121593F4FE9
S11303B0F90120813181FC0131832083CE018D58E4
S11303C09F4FFC01808191810197F1F79E012D5887
S11303D03F4FF901918380838BE290E020910401E7
S11303E030910501FC01208385E290E024E0FC01CA
S11303F0208380E090E0AAE7B4E489879A87AB87FA
S1130400BC878E010F591F4F20E030E04AE755E4C6
S113041069857A858B859C850E941807DC01CB0150
S1130420F80180839183A283B383CE018F599F4FB8
S113043020E030E040E85FE3FC016081718182816B
S113044093810E94920688234CF4CE018B599F4FCE
S113045021E030E0FC013183208369C0CE018F5953
S11304609F4F20E03FEF4FE757E4FC01608171812B
S1130470828193810E94130718160CF046C020E075
S113048030E040E251E469857A858B859C850E9441
S11304901807DC01CB018E010B591F4FBC01CD01A4
S11304A00E949706DC01CB01F80191838083CE0181
S11304B08B599F4FFC0180819181892B09F451C094
S11304C0CE0189599F4F20E931E0FC01318320831B
S11304D0CE0189599F4FFC01808191810197F1F7E9
S11304E09E0129593F4FF90191838083CE018B5995
S11304F09F4F9E012B593F4FF9012081318121509B
S11305003109FC0131832083D2CF8E010B591F4F57
S1130510CE018F599F4FFC0160817181828193814B
S11305200E949706DC01CB01F80191838083CE0100
S113053087599F4F9E012B593F4FF90120813181EB
S1130540FC0131832083CE0187599F4FFC018081B8
S113055091810197F1F79E0127593F4FF90191834A
S113056080838BE290E02091060130910701FC0129
S1130570208385E290E021E0FC01208380E090E08C
S1130580AAE7B4E48D879E87AF87B88B8E01095A9A
S11305901F4F20E030E04AE755E46D857E858F8566
S11305A098890E941807DC01CB01F80180839183AC
S11305B0A283B383CE01895A9F4F20E030E040E804
S11305C05FE3FC0160817181828193810E949206C4
S11305D088234CF4CE01855A9F4F21E030E0FC0182
S11305E03183208369C0CE01895A9F4F20E03FEFB9
S11305F04FE757E4FC0160817181828193810E94FD
S1130600130718160CF046C020E030E040E251E435
S11306106D857E858F8598890E941807DC01CB0142
S11306208E01055A1F4FBC01CD010E949706DC01C3
S1130630CB01F80191838083CE01855A9F4FFC0141
S113064080819181892B09F451C0CE01835A9F4F37
S113065020E931E0FC0131832083CE01835A9F4F8E
S1130660FC01808191810197F1F79E01235A3F4F4C
S1130670F90191838083CE01855A9F4F9E01255AAB
S11306803F4FF9012081318121503109FC0131832F
S11306902083D2CF8E01055A1F4FCE01895A9F4F16
S11306A0FC0160817181828193810E949706DC0143
S11306B0CB01F80191838083CE01815A9F4F9E0123
S11306C0255A3F4FF90120813181FC013183208378
S11306D0CE01815A9F4FFC01808191810197F1F7EE
S11306E09E01215A3F4FF901918380838BE290E070
S11306F02091080130910901FC01208385E290E0FA
S113070022E0FC01208380E090E0AAE7B4E4898B36
S11307109A8BAB8BBC8B8E01035B1F4F20E030E0C8
S11307204AE755E469897A898B899C890E9418076C
S1130730DC01CB01F80180839183A283B383CE01D2
S1130740835B9F4F20E030E040E85FE3FC01608181
S11307507181828193810E94920688234CF4CE0198
S11307608F5A9F4F21E030E0FC013183208369C020
S1130770CE01835B9F4F20E03FEF4FE757E4FC013E
S113078060817181828193810E94130718160CF095
S113079046C020E030E040E251E469897A898B89DF
S11307A09C890E941807DC01CB018E010F5A1F4F50
S11307B0BC01CD010E949706DC01CB01F8019183B5
S11307C08083CE018F5A9F4FFC0180819181892BB8
S11307D009F451C0CE018D5A9F4F20E931E0FC014C
S11307E031832083CE018D5A9F4FFC0180819181FA
S11307F00197F1F79E012D5A3F4FF90191838083B0
S1130800CE018F5A9F4F9E012F5A3F4FF9012081ED
S1130810318121503109FC0131832083D2CF8E01F3
S11308200F5A1F4FCE01835B9F4FFC016081718182
S1130830828193810E949706DC01CB01F8019183A8
S11308408083CE018B5A9F4F9E012F5A3F4FF9014F
S113085020813181FC0131832083CE018B5A9F4F4B
S1130860FC01808191810197F1F79E012B5A3F4F42
S1130870F901918380838BE290E020910A01309109
S11308800B01FC01208385E290E024E0FC0120833D
S113089080E090E0AAE7B4E48D8B9E8BAF8BB88F99
S11308A08E010D5B1F4F20E030E04AE755E46D896F
S11308B07E898F89988D0E941807DC01CB01F8018D
S11308C080839183A283B383CE018D5B9F4F20E00D
S11308D030E040E85FE3FC016081718182819381B3
S11308E00E94920688234CF4CE01895B9F4F21E03D
S11308F030E0FC013183208369C0CE018D5B9F4FC2
S113090020E03FEF4FE757E4FC0160817181828171
S113091093810E94130718160CF046C020E030E0C3
S113092040E251E46D897E898F89988D0E94180771
S1130930DC01CB018E01095B1F4FBC01CD010E947C
S11309409706DC01CB01F80191838083CE01895B9A
S11309509F4FFC0180819181892B09F451C0CE0104
S1130960875B9F4F20E931E0FC0131832083CE0176
S1130970875B9F4FFC01808191810197F1F79E0174
S1130980275B3F4FF90191838083CE01895B9F4FA1
S11309909E01295B3F4FF9012081318121503109AA
S11309A0FC0131832083D2CF8E01095B1F4FCE011E
S11309B08D5B9F4FFC0160817181828193810E94D4
S11309C09706DC01CB01F80191838083CE01855B1E
S11309D09F4F9E01295B3F4FF90120813181FC012A
S11309E031832083CE01855B9F4FFC0180819181FF
S11309F00197F1F79E01255B3F4FF90191838083B5
S1130A008BE290E020910C0130910D01FC012083D8
S1130A1085E290E021E0FC01208380E090E0AAE7F9
S1130A20B4E4898F9A8FAB8FBC8F20E030E04AE723
S1130A3055E4698D7A8D8B8D9C8D0E941807DC019D
S1130A40CB0189AF9AAFABAFBCAF20E030E040E858
S1130A505FE369AD7AAD8BAD9CAD0E9492068823AD
S1130A602CF481E090E09EAF8DAF48C020E03FEFD2
S1130A704FE757E469AD7AAD8BAD9CAD0E94130787
S1130A80181694F520E030E040E251E4698D7A8D47
S1130A908B8D9C8D0E941807DC01CB01BC01CD011C
S1130AA00E949706DC01CB019EAF8DAF8DAD9EAD4C
S1130AB0892BD1F120E931E0CE01CF96FC013183BD
S1130AC02083CE01CF96FC01808191810197F1F7BB
S1130AD09E01215C3F4FF901918380838DAD9EADD2
S1130AE001979EAF8DAFE2CF69AD7AAD8BAD9CAD72
S1130AF00E949706DC01CB019EAF8DAFCE018F5BC8
S1130B009F4F2DAD3EADFC0131832083CE018F5B21
S1130B109F4FFC01808191810197F1F79E012F5B2A
S1130B203F4FF901918380838BE290E020910E0185
S1130B3030910F01FC01208385E290E022E0FC016A
S1130B40208380E090E0AAE7B4E48D8F9E8FAF8F7E
S1130B50B8A320E030E04AE755E46D8D7E8D8F8D9B
S1130B6098A10E941807DC01CB018FA798ABA9AB11
S1130B70BAAB20E030E040E85FE36FA578A989A92B
S1130B809AA90E94920688232CF481E090E09CAB01
S1130B908BAB3EC020E03FEF4FE757E46FA578A949
S1130BA089A99AA90E941307181644F520E030E099
S1130BB040E251E46D8D7E8D8F8D98A10E941807BF
S1130BC0DC01CB01BC01CD010E949706DC01CB0105
S1130BD09CAB8BAB8BA99CA9892B21F180E991E07B
S1130BE09EAB8DAB8DA99EA90197F1F79EAB8DAB02
S1130BF08BA99CA901979CAB8BABECCF6FA578A973
S1130C0089A99AA90E949706DC01CB019CAB8BAB06
S1130C108BA99CA998AF8FAB8FA998AD0197F1F7D9
S1130C2098AF8FAB8BE290E02091100130911101CD
S1130C30FC01208385E290E024E0FC01208380E035
S1130C4090E0AAE7B4E489A39AA3ABA3BCA320E0F1
S1130C5030E04AE755E469A17AA18BA19CA10E94E6
S1130C601807DC01CB018DA39EA3AFA3B8A720E096
S1130C7030E040E85FE36DA17EA18FA198A50E94BA
S1130C80920688232CF481E090E09AA789A73FC0BC
S1130C9020E03FEF4FE757E46DA17EA18FA198A517
S1130CA00E94130718164CF520E030E040E251E4AE
S1130CB069A17AA18BA19CA10E941807DC01CB0138
S1130CC0BC01CD010E949706DC01CB019AA789A73C
S1130CD089A59AA5892B09F4F5C980E991E09CA717
S1130CE08BA78BA59CA50197F1F79CA78BA789A53A
S1130CF09AA501979AA789A7EBCF6DA17EA18FA191
S1130D0098A50E949706DC01CB019AA789A789A51B
S1130D109AA59EA78DA78DA59EA50197F1F79EA7DD
S1130D208DA7D0C90E94C60608F481E008950E94E8
S1130D30F20688F09F5798F0B92F9927B751B0F071
S1130D40E1F0660F771F881F991F1AF0BA95C9F74B
S1130D5014C0B13091F00E940C07B1E008950C94D6
S1130D600C07672F782F8827B85F39F0B93FCCF389
S1130D70869577956795B395D9F73EF490958095C8
S1130D80709561957F4F8F4F9F4F0895990F00087D
S1130D90550FAA0BE0E8FEEF16161706E807F90749
S1130DA0C0F012161306E407F50798F0621B730BE4
S1130DB0840B950B39F40A2661F0232B242B252B65
S1130DC021F408950A2609F4A140A6958FEF811D08
S1130DD0811D089557FD9058440F551F59F05F3FEA
S1130DE071F04795880F97FB991F61F09F3F79F049
S1130DF087950895121613061406551FF2CF4695CB
S1130E00F1DF08C0161617061806991FF1CF86954C
S1130E107105610508940895E894BB276627772730
S1130E20CB0197F908950E94C60608F48FEF089540
S1130E300E942B070C949C070E948E0738F00E9496
S1130E40950720F0952311F00C9485070C948B07DB
S1130E5011240C940D070E94EA0670F3959FC1F3C8
S1130E60950F50E0551F629FF001729FBB27F00D54
S1130E70B11D639FAA27F00DB11DAA1F649F6627A9
S1130E80B00DA11D661F829F2227B00DA11D621FF8
S1130E90739FB00DA11D621F839FA00D611D221FB2
S1130EA0749F3327A00D611D231F849F600D211D96
S1130EB0822F762F6A2F11249F5750409AF0F1F019
S1130EC088234AF0EE0FFF1FBB1F661F771F881F82
S1130ED091505040A9F79E3F510580F00C9485072E
S1130EE00C940D075F3FE4F3983ED4F38695779511
S1130EF06795B795F795E7959F5FC1F7FE2B880F28
S1130F00911D9695879597F9089597F99F6780E8BD
S1130F1070E060E008959FEF80EC089500240A9447
S1130F201616170618060906089500240A941216C0
S1130F301306140605060895092E0394000C11F4F3
S1130F40882352F0BB0F40F4BF2B11F460FF04C0A0
S1110F506F5F7F4F8F4F9F4F0895F894FFCF30
S1130F5EA000BB0062002A0039002C002400BA0055
S1070F6E2000280033
S9030000FC
