:100000000C9434000C943E000C943E000C943E0082
:100010000C943E000C943E000C943E000C943E0068
:100020000C943E000C943E000C943E000C943E0058
:100030000C943E000C943E000C943E000C943E0048
:100040000C943E000C943E000C943E000C943E0038
:100050000C943E000C943E000C943E000C943E0028
:100060000C943E000C943E0011241FBECFEFD8E04C
:10007000DEBFCDBF0E9440000C9494020C9400009F
:10008000CF93DF93CDB7DEB7A0970FB6F894DEBF5E
:100090000FBECDBF8AE290E02FEFFC0120838BE200
:1000A00090E02FEFFC01208386EB90E0FC011082B2
:1000B00084E490E023E0FC01208384E490E024E4E5
:1000C00030E0F90120812068FC01208384E490E085
:1000D00024E430E0F90120812062FC0120831A82AF
:1000E000198289819A818A3F91050CF07CC087E44E
:1000F00090E02981FC01208380E090E0A8E4B2E454
:1001000089879A87AB87BC8720E030E04AE755E4CF
:1001100069857A858B859C850E94FF01DC01CB0176
:100120008D879E87AF87B88B20E030E040E85FE3A3
:100130006D857E858F8598890E94790188232CF4AE
:1001400081E090E09A8B898B3EC020E03FEF4FE743
:1001500057E46D857E858F8598890E94FA0118166F
:1001600044F520E030E040E251E469857A858B85F2
:100170009C850E94FF01DC01CB01BC01CD010E94E6
:100180007E01DC01CB019A8B898B89899A89892B25
:1001900021F180E991E09C8B8B8B8B899C89019765
:1001A000F1F79C8B8B8B89899A8901979A8B898B24
:1001B000ECCF6D857E858F8598890E947E01DC015C
:1001C000CB019A8B898B89899A899E8B8D8B8D899E
:1001D0009E890197F1F79E8B8D8B89819A81059677
:1001E0009A8389837ECF8AEF90E09C838B838B8177
:1001F0009C81181619060CF072CF87E490E02B81D1
:10020000FC01208380E090E0A8E4B2E48D839E832B
:10021000AF83B88720E030E04AE755E46D817E8106
:100220008F8198850E94FF01DC01CB018F8B988F15
:10023000A98FBA8F20E030E040E85FE36F89788DC6
:10024000898D9A8D0E94790188232CF481E090E0B9
:100250009C8F8B8F3EC020E03FEF4FE757E46F89C4
:10026000788D898D9A8D0E94FA01181644F520E048
:1002700030E040E251E46D817E818F8198850E945B
:10028000FF01DC01CB01BC01CD010E947E01DC013C
:10029000CB019C8F8B8F8B8D9C8D892B21F180E9DD
:1002A00091E09E8F8D8F8D8D9E8D0197F1F79E8FA2
:1002B0008D8F8B8D9C8D01979C8F8B8FECCF6F8951
:1002C000788D898D9A8D0E947E01DC01CB019C8FF7
:1002D0008B8F8B8D9C8D98A38F8F8F8D98A101977D
:1002E000F1F798A38F8F8B819C8105979C838B83DB
:1002F0007ECF0E94AD0108F481E008950E94D901EB
:1003000088F09F5798F0B92F9927B751B0F0E1F0D6
:10031000660F771F881F991F1AF0BA95C9F714C086
:10032000B13091F00E94F301B1E008950C94F30113
:10033000672F782F8827B85F39F0B93FCCF38695BF
:1003400077956795B395D9F73EF49095809570951C
:1003500061957F4F8F4F9F4F0895990F0008550F5C
:10036000AA0BE0E8FEEF16161706E807F907C0F03B
:1003700012161306E407F50798F0621B730B840B43
:10038000950B39F40A2661F0232B242B252B21F41D
:1003900008950A2609F4A140A6958FEF811D811DBD
:1003A000089557FD9058440F551F59F05F3F71F065
:1003B0004795880F97FB991F61F09F3F79F08795CC
:1003C0000895121613061406551FF2CF4695F1DF55
:1003D00008C0161617061806991FF1CF86957105E5
:1003E000610508940895E894BB2766277727CB0119
:1003F00097F908950E94AD0108F48FEF08950E94C7
:1004000012020C9483020E94750238F00E947C0252
:1004100020F0952311F00C946C020C9472021124BC
:100420000C94F4010E94D10170F3959FC1F3950FD4
:1004300050E0551F629FF001729FBB27F00DB11D68
:10044000639FAA27F00DB11DAA1F649F6627B00DF8
:10045000A11D661F829F2227B00DA11D621F739FE1
:10046000B00DA11D621F839FA00D611D221F749FEF
:100470003327A00D611D231F849F600D211D822F36
:10048000762F6A2F11249F5750409AF0F1F088235D
:100490004AF0EE0FFF1FBB1F661F771F881F91508A
:1004A0005040A9F79E3F510580F00C946C020C94CB
:1004B000F4015F3FE4F3983ED4F386957795679512
:1004C000B795F795E7959F5FC1F7FE2B880F911DB4
:1004D0009695879597F9089597F99F6780E870E05A
:1004E00060E008959FEF80EC089500240A941616AA
:1004F000170618060906089500240A941216130612
:10050000140605060895092E0394000C11F488239F
:1005100052F0BB0F40F4BF2B11F460FF04C06F5FBB
:0C0520007F4F8F4F9F4F0895F894FFCF3E
:00000001FF
