:100000000C9434000C943E000C943E000C943E0082
:100010000C943E000C943E000C943E000C943E0068
:100020000C943E000C943E000C943E000C943E0058
:100030000C943E000C943E000C943E000C943E0048
:100040000C943E000C943E000C943E000C943E0038
:100050000C943E000C943E000C943E000C943E0028
:100060000C943E000C943E0011241FBECFEFD8E04C
:10007000DEBFCDBF0E9440000C9448030C940000EA
:10008000CF93DF93CDB7DEB7E8970FB6F894DEBF16
:100090000FBECDBF8AE290E02FEFFC01208384E405
:1000A00090E02FEFFC01208387E490E021E2FC0147
:1000B000208380E090E0AAE7B4E489839A83AB834D
:1000C000BC8320E030E04AE755E469817A818B8186
:1000D0009C810E94B302DC01CB018FA798ABA9AB36
:1000E000BAAB20E030E040E85FE36FA578A989A9CA
:1000F0009AA90E942D0288232CF481E090E09CAB09
:100100008BAB3EC020E03FEF4FE757E46FA578A9E7
:1001100089A99AA90E94AE02181644F520E030E0A1
:1001200040E251E469817A818B819C810E94B30213
:10013000DC01CB01BC01CD010E943202DC01CB010C
:100140009CAB8BAB8BA99CA9892B21F180E991E019
:100150009EAB8DAB8DA99EA90197F1F79EAB8DABA0
:100160008BA99CA901979CAB8BABECCF6FA578A911
:1001700089A99AA90E943202DC01CB019CAB8BAB0E
:100180008BA99CA998AF8FAB8FA998AD0197F1F778
:1001900098AF8FAB87E490E024E6FC01208380E0F9
:1001A00090E0AAE7B4E48D839E83AF83B88720E014
:1001B00030E04AE755E46D817E818F8198850E9409
:1001C000B302DC01CB018DA39EA3AFA3B8A720E0AF
:1001D00030E040E85FE36DA17EA18FA198A50E9469
:1001E0002D0288232CF481E090E09AA789A73EC0D5
:1001F00020E03FEF4FE757E46DA17EA18FA198A5C6
:100200000E94AE02181644F520E030E040E251E4CE
:100210006D817E818F8198850E94B302DC01CB01C4
:10022000BC01CD010E943202DC01CB019AA789A753
:1002300089A59AA5892B21F180E991E09CA78BA73C
:100240008BA59CA50197F1F79CA78BA789A59AA5DB
:1002500001979AA789A7ECCF6DA17EA18FA198A540
:100260000E943202DC01CB019AA789A789A59AA531
:100270009EA78DA78DA59EA50197F1F79EA78DA797
:1002800087E490E02FEFFC01208380E090E0AAE774
:10029000B4E489879A87AB87BC8720E030E04AE7DF
:1002A00055E469857A858B859C850E94B302DC01C3
:1002B000CB018B8F9C8FAD8FBE8F20E030E040E86C
:1002C0005FE36B8D7C8D8D8D9E8D0E942D0288232A
:1002D0002CF481E090E098A38F8F3EC020E03FEFA8
:1002E0004FE757E46B8D7C8D8D8D9E8D0E94AE0205
:1002F000181644F520E030E040E251E469857A8543
:100300008B859C850E94B302DC01CB01BC01CD0131
:100310000E943202DC01CB0198A38F8F8F8D98A1B0
:10032000892B21F180E991E09AA389A389A19AA15F
:100330000197F1F79AA389A38F8D98A1019798A3AC
:100340008F8FECCF6B8D7C8D8D8D9E8D0E943202B8
:10035000DC01CB0198A38F8F8F8D98A19CA38BA3D9
:100360008BA19CA10197F1F79CA38BA387E490E05C
:10037000FC01108280E090E0AAE7B4E48D879E87BC
:10038000AF87B88B20E030E04AE755E46D857E8585
:100390008F8598890E94B302DC01CB01898B9A8BEF
:1003A000AB8BBC8B20E030E040E85FE369897A8961
:1003B0008B899C890E942D0288232CF481E090E097
:1003C0009E8B8D8B3FC020E03FEF4FE757E469895C
:1003D0007A898B899C890E94AE0218164CF520E020
:1003E00030E040E251E46D857E858F8598890E94DA
:1003F000B302DC01CB01BC01CD010E943202DC0161
:10040000CB019E8B8D8B8D899E89892B09F44CCED7
:1004100080E991E0988F8F8B8F89988D0197F1F704
:10042000988F8F8B8D899E8901979E8B8D8BEBCFBB
:1004300069897A898B899C890E943202DC01CB010F
:100440009E8B8D8B8D899E899A8F898F898D9A8DB0
:100450000197F1F79A8F898F27CE0E94610208F4E5
:1004600081E008950E948D0288F09F5798F0B92F7F
:100470009927B751B0F0E1F0660F771F881F991FD9
:100480001AF0BA95C9F714C0B13091F00E94A702D2
:10049000B1E008950C94A702672F782F8827B85FE2
:1004A00039F0B93FCCF3869577956795B395D9F731
:1004B0003EF490958095709561957F4F8F4F9F4F3B
:1004C0000895990F0008550FAA0BE0E8FEEF1616E5
:1004D0001706E807F907C0F012161306E407F50738
:1004E00098F0621B730B840B950B39F40A2661F0AC
:1004F000232B242B252B21F408950A2609F4A1404F
:10050000A6958FEF811D811D089557FD9058440FCA
:10051000551F59F05F3F71F04795880F97FB991F62
:1005200061F09F3F79F0879508951216130614061F
:10053000551FF2CF4695F1DF08C0161617061806AC
:10054000991FF1CF86957105610508940895E89487
:10055000BB2766277727CB0197F908950E94610290
:1005600008F48FEF08950E94C6020C9437030E948E
:10057000290338F00E94300320F0952311F00C94E9
:1005800020030C94260311240C94A8020E948502D7
:1005900070F3959FC1F3950F50E0551F629FF001D6
:1005A000729FBB27F00DB11D639FAA27F00DB11DEF
:1005B000AA1F649F6627B00DA11D661F829F222778
:1005C000B00DA11D621F739FB00DA11D621F839FFF
:1005D000A00D611D221F749F3327A00D611D231FD5
:1005E000849F600D211D822F762F6A2F11249F5723
:1005F00050409AF0F1F088234AF0EE0FFF1FBB1F26
:10060000661F771F881F91505040A9F79E3F5105E4
:1006100080F00C9420030C94A8025F3FE4F3983E12
:10062000D4F3869577956795B795F795E7959F5F8E
:10063000C1F7FE2B880F911D9695879597F9089520
:1006400097F99F6780E870E060E008959FEF80EC85
:10065000089500240A941616170618060906089528
:1006600000240A9412161306140605060895092E8E
:100670000394000C11F4882352F0BB0F40F4BF2BFD
:1006800011F460FF04C06F5F7F4F8F4F9F4F08953D
:04069000F894FFCF0C
:00000001FF
